:100000000C945E000C9486000C9486000C94860080
:100010000C9486000C9486000C9486000C94860048
:100020000C9486000C9486000C9486000C94860038
:100030000C9486000C9486000C9486000C94860028
:100040000C9419040C9486000C94E7030C94C103DF
:100050000C9486000C9486000C9486000C94860008
:100060000C9486000C948600000000080002010039
:100070000003040700000000000000000000000072
:10008000250028002B0000000000240027002A0083
:10009000040404040404040402020202020203032E
:1000A0000303030301020408102040800102040836
:1000B00010200102040810206304DE0611241FBE74
:1000C000CFEFD8E0DEBFCDBF23E0AEE8B2E001C0A5
:1000D0001D92A734B207E1F712E0A0E0B1E0E4E539
:1000E000F3E102C005900D92AE38B107D9F710E0E8
:1000F000CDE5D0E004C02197FE010E949007CC35E9
:10010000D107C9F70E9495040C949D090C94000036
:1001100090E0FC01EC55FF4F2491FC01E057FF4FAC
:100120008491882399F090E0880F991FFC01EA5789
:10013000FF4FA591B491FC01E458FF4F8591949134
:100140008FB7F894EC91E22BEC938FBF0895CF9288
:10015000DF92EF92FF920F931F93CF93DF936C0187
:100160007A018B01C0E0D0E0CE15DF0581F0D80127
:100170006D918D01D601ED91FC910190F081E02D02
:10018000C6010995892B11F02196EECF7E01C7019A
:10019000DF91CF911F910F91FF90EF90DF90CF9063
:1001A0000895089580E090E00895FC01538D448DFA
:1001B000252F30E0842F90E0821B930B541710F012
:1001C000CF96089501970895FC01918D828D98171F
:1001D00061F0828DDF01A80FB11D5D968C91928D2B
:1001E0009F5F9F73928F90E008958FEF9FEF089528
:1001F000FC01918D828D981731F0828DE80FF11DF1
:10020000858D90E008958FEF9FEF0895FC01918D0B
:10021000228D892F90E0805C9F4F821B91098F7304
:100220009927089580EA92E00E94060121E0892B37
:1002300009F420E0822F0895FC01848DDF01A80FCE
:10024000B11DA35ABF4F2C91848D90E001968F73FE
:100250009927848FA689B7892C93A089B1898C911D
:10026000837080648C93938D848D981306C002886C
:10027000F389E02D80818F7D80830895EF92FF9236
:100280000F931F93CF93DF93EC0181E0888F9B8DB9
:100290008C8D981305C0E889F989808185FD26C079
:1002A000F62E0B8D10E00F5F1F4F0F731127E02EFE
:1002B0008C8DE8120CC00FB607FCFACFE889F989DB
:1002C000808185FFF5CFCE010E941C01F1CF8B8D7F
:1002D000FE01E80FF11DE35AFF4FF0829FB7F8943B
:1002E0000B8FEA89FB89808180620AC09FB7F894EE
:1002F000EE89FF896083E889F98980818370806451
:1003000080839FBF81E090E0DF91CF911F910F919B
:10031000FF90EF900895CF93DF93EC01888D8823B1
:10032000C9F0EA89FB89808185FD05C0A889B98962
:100330008C9186FD0FC00FB607FCF5CF808185FF3D
:10034000F2CFA889B9898C9185FFEDCFCE010E94AB
:100350001C01E7CFDF91CF91089580E090E0892BD9
:1003600029F00E94120181110C940000089590E080
:10037000FC01E859FF4F2491FC01EC55FF4F3491EB
:10038000FC01E057FF4FE491EE2309F43CC0222327
:1003900039F1233091F038F42130A9F0223001F501
:1003A00084B58F7D12C0273091F02830A1F0243021
:1003B000B9F4809180008F7D03C0809180008F7799
:1003C000809380000DC084B58F7784BD09C0809173
:1003D000B0008F7703C08091B0008F7D8093B00014
:1003E000F0E0EE0FFF1FE458FF4FA591B4919FB7C7
:1003F000F894611104C08C913095382302C0EC91BF
:100400003E2B3C939FBF08953FB7F8948091930291
:1004100090919402A0919502B091960226B5A89B66
:1004200005C02F3F19F00196A11DB11D3FBFBA2F86
:10043000A92F982F8827820F911DA11DB11DBC01E6
:10044000CD0142E0660F771F881F991F4A95D1F7AB
:1004500008958F929F92AF92BF92CF92DF92EF92C8
:10046000FF926B017C010E9404024B015C01C114EC
:10047000D104E104F104F1F00E940402DC01CB019B
:1004800088199909AA09BB09883E9340A105B105BD
:1004900070F321E0C21AD108E108F10888EE880E55
:1004A00083E0981EA11CB11CC114D104E104F10425
:1004B00019F7DDCFFF90EF90DF90CF90BF90AF9016
:1004C0009F908F900895009769F0FC0101900020A3
:1004D000E9F73197AF01481B590BBC0180EA92E064
:1004E0000C94A70080E090E00895CF93DF93FC0187
:1004F000448155816081718180EA92E00E94A70069
:10050000EC0184E991E00E9463028C0F9D1FDF9152
:10051000CF9108950F931F93CF93DF93C7E0D0E05F
:10052000082F10E0B8010C2E02C0759567950A944B
:10053000E2F7617082E00E94B70161E083E00E940F
:10054000B70160E083E00E94B701219758F7DF917F
:10055000CF911F910F9108950E947D090F931F93D2
:10056000CF93DF93EC0188819981009729F02A814C
:100570003B812617370788F48B016F5F7F4F0E94FE
:10058000B708009761F0998388831B830A832C81C5
:100590003D81232B11F4FC01108281E001C080E039
:1005A000DF91CF911F910F910895EF92FF920F93DA
:1005B0001F93CF93DF936115710511F480E01CC088
:1005C00041155105C1F07B01EC018C819D818A01AF
:1005D000080F191FB801CE010E94AE02882371F3E3
:1005E000288139818C819D81B701820F931F0E94E0
:1005F00096091D830C8381E0DF91CF911F910F91AC
:10060000FF90EF900895CF93DF93EC01888199815B
:10061000009711F00E942E08198218821D821C82F8
:100620001B821A82DF91CF910895CF93DF93EC0163
:10063000FB0144815581608171810E94D502811145
:1006400003C0CE010E940303CE01DF91CF91089534
:10065000EF92FF920F931F93CF93DF93EC011982D8
:1006600018821B821A821D821C826115710521F17C
:100670008B01FB0101900020E9F731977F01E61A19
:10068000F70AB7010E94AE02811109C0CE01DF91C5
:10069000CF911F910F91FF90EF900C940303FD8277
:1006A000EC82B80188819981DF91CF911F910F91E0
:1006B000FF90EF900C949609DF91CF911F910F91CD
:1006C000FF90EF900895EF92FF920F931F93CF93B7
:1006D000DF938C017B016115710569F0FB010190CD
:1006E0000020E9F73197EF01C61BD70BBE010E942E
:1006F000AE02811104C0C8010E94030308C0F801C2
:10070000D583C483B701808191810E949609C80175
:10071000DF91CF911F910F91FF90EF9008950F936C
:100720001F93CF93DF93CDB7DEB729970FB6F89419
:10073000DEBF0FBECDBF8C01862FF8011182108263
:1007400013821282158214824AE0BE016F5F7F4FCE
:1007500090E00E94E206BE016F5F7F4FC8010E94D9
:10076000630329960FB6F894DEBF0FBECDBFDF91AD
:10077000CF911F910F910895FC01808191810C947C
:100780002E081F920F920FB60F9211242F933F93B2
:100790004F935F936F937F938F939F93AF93BF9389
:1007A000EF93FF9380EA92E00E941C01FF91EF918A
:1007B000BF91AF919F918F917F916F915F914F9179
:1007C0003F912F910F900FBE0F901F9018951F9281
:1007D0000F920FB60F9211242F938F939F93EF9345
:1007E000FF93E091B002F091B1028081E091B602F6
:1007F000F091B70282FD12C090818091B9028F5FA3
:100800008F732091BA02821751F0E091B902F0E0A3
:10081000E056FD4F958F8093B90201C08081FF9112
:10082000EF919F918F912F910F900FBE0F901F907E
:1008300018951F920F920FB60F9211242F933F938A
:100840008F939F93AF93BF9380918F02909190026B
:10085000A0919102B091920230918E0223E0230F79
:100860002D3720F40196A11DB11D05C026E8230FE8
:100870000296A11DB11D20938E0280938F0290934A
:100880009002A0939102B093920280919302909172
:100890009402A0919502B09196020196A11DB11DFE
:1008A0008093930290939402A0939502B093960242
:1008B000BF91AF919F918F913F912F910F900FBE5C
:1008C0000F901F901895E0EAF2E01382128288EEF2
:1008D00093E0A0E0B0E084839583A683B78386E8A5
:1008E00091E09183808385EC90E09587848784EC08
:1008F00090E09787868780EC90E0918B808B81ECED
:1009000090E0938B828B82EC90E0958B848B86ECCD
:1009100090E0978B868B118E128E138E148E66E963
:1009200071E08DE393E00C942803CF93DF93CDB770
:10093000DEB72C970FB6F894DEBF0FBECDBF78940C
:1009400084B5826084BD84B5816084BD85B58260D4
:1009500085BD85B5816085BD80916E008160809385
:100960006E001092810080918100826080938100EE
:1009700080918100816080938100809180008160FE
:10098000809380008091B10084608093B100809159
:10099000B00081608093B00080917A008460809381
:1009A0007A0080917A00826080937A0080917A0048
:1009B000816080937A0080917A00806880937A00C9
:1009C0001092C10082E00E94880083E00E948800AB
:1009D00084E00E94880060E082E00E94B70160E04D
:1009E00083E00E94B70161E084E00E94B7011092A9
:1009F0009A0210929E0266E971E08DE393E00E94F4
:100A0000630380E090E00E940F07F82E8093970226
:100A10008FEF8F0D87FD1FC081E080939F021091A3
:100A20009F02812F90E00E940F07082F8093990268
:100A300089831A8241E050E0BE016F5F7F4F8DE3F2
:100A400093E00E94D5021F5F10939F02F11648F0B9
:100A50000111E5CF06C067E971E08DE393E00E94E4
:100A600063038091410380939D02E091B002F09175
:100A7000B10282E08083E091AC02F091AD0210827D
:100A8000E091AE02F091AF028FEC80831092B80239
:100A9000E091B402F091B50286E08083E091B20269
:100AA000F091B302808180618083E091B202F09185
:100AB000B302808188608083E091B202F091B3023A
:100AC000808180688083E091B202F091B3028081DE
:100AD0008F7D808384EC91E00E94630284E991E041
:100AE0000E94630260919D02CE0101960E948F03D5
:100AF00061EF71E0CE0107960E942803BE016F5F8F
:100B00007F4FCE0107960E9415030E947502CE0109
:100B100007960E94BC03CE0101960E94BC0389E0A7
:100B200092E00E94630284E991E00E9463028DE3F7
:100B300092E00E94630210929F02F0909F0283E075
:100B40008F1508F468C080919E0290E003968F197B
:100B5000910960919D0270E00E9468072091410315
:100B6000309142038217930730F4E0913D03F091F6
:100B70003E03309729F410929802E8E9F2E002C0AF
:100B8000E80FF91F0081002E000C110BF801F097FF
:100B9000EA30F10528F4EE0FFF1FE259FE4F15C0B1
:100BA000C8010E948609892B31F0000F111FF8013E
:100BB000E858FF4F0AC0C8010E948209892B41F002
:100BC000000F111FF801EC57FF4F0081818102C017
:100BD00000E080E000939B02182F90E4F99E100D36
:100BE000112410939C0260E084E00E94B701812FE1
:100BF0000E948A02802F0E948A0261E084E00E94A3
:100C0000B70166E070E080E090E00E942902F39472
:100C1000F0929F0292CF80919A028F5F8A3019F0F2
:100C200080939A020BC010929A0280919E028F5F6D
:100C300060919D020E945C0790939E0280EA92E080
:100C40000E940601181619060CF0B5C066E971E09D
:100C50008DE393E00E94630380EA92E00E94060124
:100C600018161906C4F480EA92E00E94E40080930A
:100C7000990289831A8241E050E0BE016F5F7F4F85
:100C80008DE393E00E94D50261E070E080E090E0A7
:100C90000E942902E1CF60914103709142036115E6
:100CA000710509F488C060939D02CE0101960E94EF
:100CB0008F0360E472E0CE0107960E942803BE0114
:100CC0006F5F7F4FCE0107960E9415030E94750249
:100CD000CE0107960E94BC03CE0101960E94BC0380
:100CE0006BE572E0CE0101960E9428036DE373E08C
:100CF000CE0101960E9415030E947502CE01019655
:100D00000E94BC0360919D0280E090E00E94170762
:100D100010929F0220919F0230919D02822F90E0BD
:100D20002317E8F42091410330914203821793077F
:100D300060F420913D0330913E032115310529F0E7
:100D4000F901E80FF91F608101C060E001960E947F
:100D5000170780919F028F5F80939F02DBCF60E037
:100D600001960E94170780E090E00E940F07682F0D
:100D7000CE0101960E948F0365E672E0CE010796D0
:100D80000E942803BE016F5F7F4FCE0107960E942D
:100D900015030E947502CE0107960E94BC03CE0186
:100DA00001960E94BC038DE392E00E9463021092C0
:100DB0009E0210929A020E94AD01BDCE8DE393E097
:100DC0000C94BC03BB27FB015527AA27880F991F4A
:100DD000AA1FA41710F0A41B83955051B9F7A05D6A
:100DE000AA3308F0A95DA193009779F7B111B193E7
:100DF0001192CB010C94FC06DC01FC01672F719170
:100E00007723E1F7329704C07C916D9370836291F0
:100E1000AE17BF07C8F30895992788270895F99951
:100E2000FECF92BD81BDF89A992780B50895262FEF
:100E3000F999FECF1FBA92BD81BD20BD0FB6F894BF
:100E4000FA9AF99A0FBE019608952F923F924F9207
:100E50005F926F927F928F929F92AF92BF92CF924A
:100E6000DF92EF92FF920F931F93CF93DF93CDB753
:100E7000DEB7CA1BDB0B0FB6F894DEBF0FBECDBFCB
:100E800009942A88398848885F846E847D848C849C
:100E90009B84AA84B984C884DF80EE80FD800C81A5
:100EA0001B81AA81B981CE0FD11D0FB6F894DEBF88
:100EB0000FBECDBFED010895991B79E004C0991FC5
:100EC000961708F0961B881F7A95C9F780950895A4
:100ED00097FB072E16F4009407D077FD09D00E94E7
:100EE0007C0707FC05D03EF4909581959F4F0895AF
:100EF000709561957F4F0895AA1BBB1B51E107C0F8
:100F0000AA1FBB1FA617B70710F0A61BB70B881F99
:100F1000991F5A95A9F780959095BC01CD01089528
:100F2000EE0FFF1F0590F491E02D09940F931F938E
:100F3000CF93DF938230910510F482E090E0E0914E
:100F40004503F091460320E030E0A0E0B0E03097A8
:100F500019F1408151810281138148175907C8F066
:100F60008417950769F4109731F012960C93129735
:100F700013961C9327C0009345031093460322C089
:100F80002115310519F04217530718F49A01BD01D4
:100F9000EF01DF01F801DBCF21153105F9F0281B46
:100FA000390B2430310580F48A819B8161157105EC
:100FB00021F0FB019383828304C0909346038093C6
:100FC0004503FE01329644C0FE01E20FF31F8193F8
:100FD000919322503109398328833AC020914303E9
:100FE00030914403232B41F42091020130910301FD
:100FF0003093440320934303209100013091010179
:101000002115310541F42DB73EB7409104015091AF
:101010000501241B350BE0914303F0914403E217D3
:10102000F307A0F42E1B3F0B2817390778F0AC010B
:101030004E5F5F4F2417350748F04E0F5F1F5093E8
:101040004403409343038193919302C0E0E0F0E0B6
:10105000CF01DF91CF911F910F910895CF93DF932F
:10106000009709F481C0FC01329713821282A0918B
:101070004503B0914603109781F420813181820F9E
:10108000931F20914303309144032817390751F5EA
:10109000F0934403E093430367C0ED0120E030E0A8
:1010A000CE17DF0740F44A815B819E01411551054F
:1010B000F1F0EA01F5CFD383C28340815181840FDF
:1010C000951FC817D90759F488819981840F951FF6
:1010D0000296918380838A819B81938382832115E9
:1010E000310529F4F0934603E09345033DC0E9013F
:1010F000FB83EA8349915991C40FD51FEC17FD0773
:1011000061F480819181840F951F0296E901998392
:101110008883828193819B838A83E0E0F0E012964A
:101120008D919C911397009719F0FD01DC01F7CF89
:101130008D919C9111979D012E5F3F4F820F931FC0
:1011400020914303309144032817390769F43097FD
:1011500029F4109246031092450302C013821282B2
:10116000B0934403A0934303DF91CF910895A0E08F
:10117000B0E0EDEBF8E00C942907EC01009721F4C6
:10118000CB010E949607B4C0FC01E60FF71F9C013B
:1011900022503109E217F30708F4A8C0D9010D91D4
:1011A0001C91119706171707B0F00530110508F4C8
:1011B0009BC0C80104978617970708F495C0025092
:1011C0001109061B170B019311936D937C93CF01AB
:1011D0000E942E0889C05B01A01AB10A4C01800E42
:1011E000911EA0914503B0914603612C712CE12C16
:1011F000F12C109709F446C08D919C911197A81578
:10120000B905B1F56C0142E0C40ED11CCA14DB046F
:1012100078F14C018A189B08640142E0C40ED11C8D
:101220001296BC9012971396AC91B5E0CB16D104F0
:1012300040F0B282A38391828082D9016D937C9326
:1012400009C00E5F1F4F800F911FF90191838083AA
:10125000EB2DFA2FE114F10431F0D7011396FC9332
:10126000EE93129741C0F0934603E09345033CC0D0
:101270006816790608F43C017D0112960D90BC9128
:10128000A02DB7CF8091430390914403881699060F
:10129000E1F466167706C8F480910001909101018F
:1012A000009741F48DB79EB740910401509105011C
:1012B000841B950BE817F907C8F4F0934403E093F7
:1012C0004303F901718360830FC0CB010E9496072D
:1012D0007C01009759F0A801BE010E948D09CE0142
:1012E0000E942E08C70104C0CE0102C080E090E039
:1012F000CDB7DEB7EEE00C94450781E090E0F894BE
:101300000C949D0985FD0C940C07806291110C943E
:101310000C0781568A51D8F70895FB01DC0102C001
:1013200001900D9241505040D8F70895FB01DC0127
:1013300001900D920020E1F7089510E0CDE5D0E096
:1013400004C0FE010E9490072196CE35D107C9F74F
:04135000F894FFCF3F
:1013540000004703800086054F0539004F0439100B
:1013640031113D01361149045108B0123800B6203C
:1013740036223F00B1103F02B1122D1141043E004C
:101384000622360A802A80248908081A381218117D
:101394000E09820380150F21301204015008C00683
:1013A4004004141510121C113030072110110803C9
:1013B40040151C000402140A802A80280818BF085B
:1013C400860099100F0126110D21391281083F1151
:1013D4000F21000000003E01A700D5008B0106018B
:1013E400E400F8000D0A00504C4541534520534594
:1013F400542054484953204D4553534147452056A2
:10140400494120412053455249414C204C494E4BBF
:10141400202020003134205365676D656E742044AC
:101424006973706C617920776974682050726F6792
:1014340072616D6D61626C65204D65737361676582
:101444000053746F726564206D6573736167652002
:101454006C656E6774683A200053656E6420612081
:101464006E6577206D6573736167652069662079A1
:101474006F75206C696B6520286C696D6974206FC9
:101484006620313238206368617273290024200099
:101494004D6573736167652072656369657665641C
:1014A40021204C656E6774683A20004D6573736142
:1014B40067653A20004C656E67746820436F6E66FA
:1014C40069726D6174696F6E20285265616420666B
:0E14D400726F6D20454550524F4D293A200051
:00000001FF
