:100000000C945E000C9486000C9486000C94860080
:100010000C9486000C9486000C9486000C94860048
:100020000C9486000C9486000C9486000C94860038
:100030000C9486000C9486000C9486000C94860028
:100040000C944E040C9486000C941C040C94F6033F
:100050000C9486000C9486000C9486000C94860008
:100060000C9486000C948600000000080002010039
:100070000003040700000000000000000000000072
:10008000250028002B0000000000240027002A0083
:10009000040404040404040402020202020203032E
:1000A0000303030301020408102040800102040836
:1000B00010200102040810209804A60711241FBE76
:1000C000CFEFD8E0DEBFCDBF13E0A0E0B1E0EEEEB1
:1000D000F6E102C005900D92A439B107D9F724E0EA
:1000E000A4E9B3E001C01D92A135B207E1F710E029
:1000F000CDE5D0E004C02197FE010E945D09CC351A
:10010000D107C9F70E94CA040C946A0B0C94000032
:1001100090E0FC01EC55FF4F2491FC01E057FF4FAC
:100120008491882399F090E0880F991FFC01EA5789
:10013000FF4FA591B491FC01E458FF4F8591949134
:100140008FB7F894EC91E22BEC938FBF0895CF9288
:10015000DF92EF92FF920F931F93CF93DF936C0187
:100160007A018B01C0E0D0E0CE15DF0581F0D80127
:100170006D918D01D601ED91FC910190F081E02D02
:10018000C6010995892B11F02196EECF7E01C7019A
:10019000DF91CF911F910F91FF90EF90DF90CF9063
:1001A0000895089580E090E00895FC01538D448DFA
:1001B000252F30E0842F90E0821B930B541710F012
:1001C000CF96089501970895FC01918D828D98171F
:1001D00061F0828DDF01A80FB11D5D968C91928D2B
:1001E0009F5F9F73928F90E008958FEF9FEF089528
:1001F000FC01918D828D981731F0828DE80FF11DF1
:10020000858D90E008958FEF9FEF0895FC01918D0B
:10021000228D892F90E0805C9F4F821B91098F7304
:10022000992708958AEA93E00E94060121E0892B2C
:1002300009F420E0822F0895FC01848DDF01A80FCE
:10024000B11DA35ABF4F2C91848D90E001968F73FE
:100250009927848FA689B7892C93A089B1898C911D
:10026000837080648C93938D848D981306C002886C
:10027000F389E02D80818F7D80830895EF92FF9236
:100280000F931F93CF93DF93EC0181E0888F9B8DB9
:100290008C8D981305C0E889F989808185FD26C079
:1002A000F62E0B8D10E00F5F1F4F0F731127E02EFE
:1002B0008C8DE8120CC00FB607FCFACFE889F989DB
:1002C000808185FFF5CFCE010E941C01F1CF8B8D7F
:1002D000FE01E80FF11DE35AFF4FF0829FB7F8943B
:1002E0000B8FEA89FB89808180620AC09FB7F894EE
:1002F000EE89FF896083E889F98980818370806451
:1003000080839FBF81E090E0DF91CF911F910F919B
:10031000FF90EF900895CF93DF93EC01888D8823B1
:10032000C9F0EA89FB89808185FD05C0A889B98962
:100330008C9186FD0FC00FB607FCF5CF808185FF3D
:10034000F2CFA889B9898C9185FFEDCFCE010E94AB
:100350001C01E7CFDF91CF91089580E090E0892BD9
:1003600029F00E94120181110C940000089590E080
:10037000FC01E859FF4F2491FC01EC55FF4F3491EB
:10038000FC01E057FF4FE491EE2309F43CC0222327
:1003900039F1233091F038F42130A9F0223001F501
:1003A00084B58F7D12C0273091F02830A1F0243021
:1003B000B9F4809180008F7D03C0809180008F7799
:1003C000809380000DC084B58F7784BD09C0809173
:1003D000B0008F7703C08091B0008F7D8093B00014
:1003E000F0E0EE0FFF1FE458FF4FA591B4919FB7C7
:1003F000F894611104C08C913095382302C0EC91BF
:100400003E2B3C939FBF08953FB7F894809199038A
:1004100090919A03A0919B03B0919C0326B5A89B51
:1004200005C02F3F19F00196A11DB11D3FBFBA2F86
:10043000A92F982F8827820F911DA11DB11DBC01E6
:10044000CD0142E0660F771F881F991F4A95D1F7AB
:1004500008958F929F92AF92BF92CF92DF92EF92C8
:10046000FF926B017C010E9404024B015C01C114EC
:10047000D104E104F104F1F00E940402DC01CB019B
:1004800088199909AA09BB09883E9340A105B105BD
:1004900070F321E0C21AD108E108F10888EE880E55
:1004A00083E0981EA11CB11CC114D104E104F10425
:1004B00019F7DDCFFF90EF90DF90CF90BF90AF9016
:1004C0009F908F900895009769F0FC0101900020A3
:1004D000E9F73197AF01481B590BBC018AEA93E059
:1004E0000C94A70080E090E00895CF93DF930E94E2
:1004F0006302EC0184E592E00E9463028C0F9D1F71
:10050000DF91CF910895CF93DF93FC014481558112
:10051000608171818AEA93E00E94A700EC0184E582
:1005200092E00E9463028C0F9D1FDF91CF9108958E
:100530000F931F93CF93DF93C7E0D0E0082F10E015
:10054000B8010C2E02C0759567950A94E2F76170A8
:1005500082E00E94B70161E083E00E94B70160E0A1
:1005600083E00E94B701219758F7DF91CF911F9147
:100570000F9108950E944A0B0F931F93CF93DF931F
:10058000EC0188819981009729F02A813B81261707
:10059000370788F48B016F5F7F4F0E94840A0097B2
:1005A00061F0998388831B830A832C813D81232BEF
:1005B00011F4FC01108281E001C080E0DF91CF9155
:1005C0001F910F9108950F931F93CF93DF9300D046
:1005D000CDB7DEB789831A8200914B0410914C0489
:1005E0000F5F1F4FB80187E494E00E94BC0288238C
:1005F000A1F0209147043091480480914B049091E0
:100600004C04BE016F5F7F4F820F931F0E94630BEC
:1006100010934C0400934B0481E00F900F90DF91F6
:10062000CF911F910F910895CF93DF93EC018881B3
:100630009981009711F00E94FB09198218821D828E
:100640001C821B821A82DF91CF910895EF92FF9254
:100650000F931F93CF93DF93EC01FB01048115816E
:10066000E080F180E114F104C9F001151105C9F031
:100670008C819D81080F191FB801CE010E94BC0218
:10068000882361F0288139818C819D81B701820F97
:10069000931F0E94630B1D830C8303C0CE010E9435
:1006A0001403CE01DF91CF911F910F91FF90EF9036
:1006B0000895EF92FF920F931F93CF93DF93EC0176
:1006C000198218821B821A821D821C826115710593
:1006D00021F18B01FB0101900020E9F731977F01A7
:1006E000E61AF70AB7010E94BC02811109C0CE01C7
:1006F000DF91CF911F910F91FF90EF900C94140315
:10070000FD82EC82B80188819981DF91CF911F91A0
:100710000F91FF90EF900C94630BDF91CF911F919D
:100720000F91FF90EF900895EF92FF920F931F9318
:10073000CF93DF938C017B016115710569F0FB019B
:1007400001900020E9F73197EF01C61BD70BBE01DE
:100750000E94BC02811104C0C8010E94140308C099
:10076000F801D583C483B701808191810E94630B16
:10077000C801DF91CF911F910F91FF90EF900895E5
:100780000F931F93CF93DF93CDB7DEB729970FB6A3
:10079000F894DEBF0FBECDBF8C01862FF801118209
:1007A000108213821282158214824AE0BE016F5FAA
:1007B0007F4F90E00E944C08BE016F5F7F4FC801E1
:1007C0000E94940329960FB6F894DEBF0FBECDBFEA
:1007D000DF91CF911F910F910895FC01808191814C
:1007E0000C94FB090C9481080C9479081F920F92C9
:1007F0000FB60F9211242F933F934F935F936F93F4
:100800007F938F939F93AF93BF93EF93FF938AEA66
:1008100093E00E941C01FF91EF91BF91AF919F91D6
:100820008F917F916F915F914F913F912F910F9099
:100830000FBE0F901F9018951F920F920FB60F9238
:1008400011242F938F939F93EF93FF93E091BA031B
:10085000F091BB038081E091C003F091C10382FD60
:1008600012C090818091C3038F5F8F732091C40366
:10087000821751F0E091C303F0E0E655FC4F958FED
:100880008093C30301C08081FF91EF919F918F916D
:100890002F910F900FBE0F901F9018951F920F92DF
:1008A0000FB60F9211242F933F938F939F93AF9383
:1008B000BF938091950390919603A0919703B09177
:1008C00098033091940323E0230F2D3720F40196F1
:1008D000A11DB11D05C026E8230F0296A11DB11D63
:1008E000209394038093950390939603A09397038A
:1008F000B09398038091990390919A03A0919B03E0
:10090000B0919C030196A11DB11D80939903909312
:100910009A03A0939B03B0939C03BF91AF919F91C7
:100920008F913F912F910F900FBE0F901F901895B0
:10093000EAEAF3E01382128288EE93E0A0E0B0E0EE
:1009400084839583A683B78386E492E09183808332
:1009500085EC90E09587848784EC90E09787868784
:1009600080EC90E0918B808B81EC90E0938B828B7C
:1009700082EC90E0958B848B86EC90E0978B868B55
:10098000118E128E138E148E66E572E087E494E069
:100990000C945903CF93DF93CDB7DEB767970FB6AB
:1009A000F894DEBF0FBECDBF789484B5826084BD5D
:1009B00084B5816084BD85B5826085BD85B5816063
:1009C00085BD80916E00816080936E0010928100E1
:1009D000809181008260809381008091810081609C
:1009E000809381008091800081608093800080915D
:1009F000B10084608093B1008091B00081608093E9
:100A0000B00080917A00846080937A0080917A00AF
:100A1000826080937A0080917A00816080937A006E
:100A200080917A00806880937A001092C10082E001
:100A30000E94880083E00E94880084E00E94880071
:100A400060E082E00E94B70160E083E00E94B701AD
:100A500061E084E00E94B701E091BA03F091BB032A
:100A600082E08083E091B603F091B7031082E091B9
:100A7000B803F091B9038FEC80831092C203E09128
:100A8000BE03F091BF0386E08083E091BC03F09148
:100A9000BD03808180618083E091BC03F091BD0340
:100AA000808188608083E091BC03F091BD038081E8
:100AB00080688083E091BC03F091BD0380818F7DCD
:100AC000808387E592E00E9475021092A403109241
:100AD000A80366E572E087E494E00E9494038EEF39
:100AE00093E00E94F403182F8093A5038FEF93E007
:100AF0000E94F4038093A603212F30E0A901582B14
:100B0000CA015093A2034093A1030E94F40380936F
:100B10009D039FEF980F97FD4DC0682FCE01019662
:100B20000E94C00364E872E0CE0142960E9459031D
:100B3000BE016F5F7F4FCE0142960E9426030E9446
:100B40008302CE0142960E94ED03CE0101960E94DF
:100B5000ED03C090A103D090A203C601019690932B
:100B6000A00380939F0300919F031091A003C801ED
:100B70000E94F403F82E8093A303682F8AEA93E07F
:100B80000E943E018F2D0E94E3020F5F1F4F1093C2
:100B9000A00300939F0380919D039601280F311DB0
:100BA0002017310710F0F110DECF84E592E00E94AB
:100BB00063020AC085EA92E00E94750268EC72E066
:100BC00087E494E00E94940380914B048093A703F0
:100BD00085EF92E00E94750289E293E00E94630231
:100BE0004CEFE42E43E0F42E1092A903D090A90319
:100BF00033E03D1508F473C08091A80390E003969C
:100C00008D1991096091A70370E00E943509209128
:100C10004B0430914C048217930730F4E091470461
:100C2000F0914804309729F410929E03EEE9F3E026
:100C300002C0E80FF91FC0800C2D0C2C000C110B0A
:100C4000F801F097EA30F10528F4EE0FFF1FE25D9E
:100C5000FD4F1FC0C8010E94530B892B31F0000FBC
:100C6000111FF801E85CFE4F14C0C8010E944F0B31
:100C7000892B31F0000F111FF801EC5BFE4F09C00A
:100C8000EFEDEC0DEE3540F4F0E0EE0FFF1FE65F08
:100C9000FE4F0081818102C000E080E00093A50347
:100CA000182F40E4D49E100D11241093A60360E089
:100CB00084E00E94B701812F0E949802802F0E9439
:100CC000980261E084E00E94B70165E070E080E096
:100CD00090E00E942902D394D092A90387CF8091FB
:100CE000A4038F5F883019F08093A4030BC0109287
:100CF000A4038091A8038F5F6091A7030E94290934
:100D00009093A8038AEA93E00E9406011816190638
:100D10000CF019C166E572E087E494E00E94940348
:100D20008AEA93E00E940601181619067CF48AEA02
:100D300093E00E94E4008093A3030E94E30261E039
:100D400070E080E090E00E942902EACF60914B04BD
:100D500070914C046115710509F4F5C06093A70307
:100D6000CE0101960E94C0036CE273E0CE01429670
:100D70000E945903BE016F5F7F4FCE0142960E94D1
:100D800026030E948302CE0142960E94ED03CE010B
:100D900001960E94ED0367E473E0CE0101960E9484
:100DA000590367E474E0CE0101960E9426030E9475
:100DB0008302CE0101960E94ED038091A7034701B3
:100DC000881A9108092C000CAA08BB0852E0851A61
:100DD0009108A108B1080E94F507A50194010E949D
:100DE0008F08DC01CB010296A11DB11D9093A203D7
:100DF0008093A1031B8A1A8A1D8A1C8A1F8A1E8A55
:100E00004AE0BE016F5F7F4F0E944C08BE016F5FDA
:100E10007F4FCE0142960E94940361E573E0CE01BC
:100E200001960E945903BE016E5E7F4FCE0101966E
:100E30000E9426030E948302CE0101960E94ED03C8
:100E4000CE0142960E94ED036091A1038091A2031E
:100E50006093A5038093A6038EEF93E00E94F203B4
:100E60006091A6038FEF93E00E94F2036091A703C5
:100E70008091A1039091A2030E94F2038091A103AB
:100E80009091A2039093A00380939F034091A103AC
:100E90005091A20320919F033091A0038091A7035A
:100EA000BA01680F711DC901019626173707F0F4C2
:100EB000241B350B40914B0450914C0424173507EB
:100EC00060F440914704509148044115510529F0C0
:100ED000FA01E20FF31F608101C060E00E94F2039B
:100EE00080919F039091A0030196CCCF60E00E9477
:100EF000F2038091A1039091A2030E94F403682F52
:100F0000CE0101960E94C0036AE673E0CE014296CC
:100F10000E945903BE016F5F7F4FCE0142960E942F
:100F200026030E948302CE0142960E94ED03CE0169
:100F300001960E94ED0389E293E00E946302109201
:100F4000A8031092A4030E94AD014ECE87E494E062
:100F50000C94ED038F929F92AF92BF92CF92DF924B
:100F6000EF92FF92CF93DF93EC01688179818A81C0
:100F70009B81611571058105910521F464E279ED8C
:100F80008BE597E02DE133EF41E050E00E948F08C0
:100F900049015A019B01AC01A7EAB1E40E94AE08E5
:100FA0006B017C01ACEEB4EFA50194010E94BC087A
:100FB000DC01CB018C0D9D1DAE1DBF1DB7FF03C015
:100FC0000197A109B04888839983AA83BB83BC0198
:100FD000CD019F77DF91CF91FF90EF90DF90CF9081
:100FE000BF90AF909F908F9008958F929F92AF92F5
:100FF000BF92CF92DF92EF92FF92609100017091C9
:101000000101809102019091030161157105810533
:10101000910521F464E279ED8BE597E02DE133EF62
:1010200041E050E00E948F0849015A019B01AC0148
:10103000A7EAB1E40E94AE086B017C01ACEEB4EF0C
:10104000A50194010E94BC08DC01CB018C0D9D1D03
:10105000AE1DBF1DB7FF03C00197A109B048809323
:10106000000190930101A0930201B0930301BC0120
:10107000CD019F77FF90EF90DF90CF90BF90AF9022
:101080009F908F9008956093000170930101809369
:101090000201909303010895BB27FB015527AA275E
:1010A000880F991FAA1FA41710F0A41B83955051F5
:1010B000B9F7A05DAA3308F0A95DA193009779F76D
:1010C000B111B1931192CB010C946608DC01FC01C3
:1010D000672F71917723E1F7329704C07C916D936C
:1010E00070836291AE17BF07C8F3089599278827C8
:1010F0000895F999FECF92BD81BDF89A992780B5E0
:101100000895262FF999FECF1FBA92BD81BD20BD4B
:101110000FB6F894FA9AF99A0FBE01960895052E23
:1011200097FB1EF400940E94A60857FD07D00E946A
:10113000F80807FC03D04EF40C94A608509540958F
:10114000309521953F4F4F4F5F4F08959095809573
:10115000709561957F4F8F4F9F4F08950E941A0998
:10116000A59F900DB49F900DA49F800D911D1124FB
:101170000895B7FF0C94AE080E94AE08821B930B33
:1011800008952F923F924F925F926F927F928F922B
:101190009F92AF92BF92CF92DF92EF92FF920F9306
:1011A0001F93CF93DF93CDB7DEB7CA1BDB0B0FB610
:1011B000F894DEBF0FBECDBF09942A8839884888CD
:1011C0005F846E847D848C849B84AA84B984C88463
:1011D000DF80EE80FD800C811B81AA81B981CE0F5A
:1011E000D11D0FB6F894DEBF0FBECDBFED0108953F
:1011F000A1E21A2EAA1BBB1BFD010DC0AA1FBB1F1B
:10120000EE1FFF1FA217B307E407F50720F0A21B8C
:10121000B30BE40BF50B661F771F881F991F1A94F9
:1012200069F760957095809590959B01AC01BD0123
:10123000CF010895A29FB001B39FC001A39F700D7D
:10124000811D1124911DB29F700D811D1124911DCE
:101250000895991B79E004C0991F961708F0961B12
:10126000881F7A95C9F78095089597FB072E16F485
:10127000009407D077FD09D00E94490907FC05D0EA
:101280003EF4909581959F4F0895709561957F4F9D
:101290000895AA1BBB1B51E107C0AA1FBB1FA617BD
:1012A000B70710F0A61BB70B881F991F5A95A9F70F
:1012B00080959095BC01CD010895EE0FFF1F05901C
:1012C000F491E02D09940F931F93CF93DF93823015
:1012D000910510F482E090E0E0914F04F091500409
:1012E00020E030E0A0E0B0E0309719F1408151817A
:1012F0000281138148175907C8F08417950769F4CC
:10130000109731F012960C93129713961C9327C0E6
:1013100000934F041093500422C02115310519F099
:101320004217530718F49A01BD01EF01DF01F801DC
:10133000DBCF21153105F9F0281B390B243031059D
:1013400080F48A819B816115710521F0FB019383F3
:10135000828304C09093500480934F04FE01329620
:1013600044C0FE01E20FF31F819391932250310993
:10137000398328833AC020914D0430914E04232BA9
:1013800041F4209106013091070130934E042093DF
:101390004D0420910401309105012115310541F4DE
:1013A0002DB73EB74091080150910901241B350B20
:1013B000E0914D04F0914E04E217F307A0F42E1BC8
:1013C0003F0B2817390778F0AC014E5F5F4F2417A9
:1013D000350748F04E0F5F1F50934E0440934D0465
:1013E0008193919302C0E0E0F0E0CF01DF91CF91D3
:1013F0001F910F910895CF93DF93009709F481C057
:10140000FC01329713821282A0914F04B0915004D4
:10141000109781F420813181820F931F20914D0418
:1014200030914E042817390751F5F0934E04E0939C
:101430004D0467C0ED0120E030E0CE17DF0740F437
:101440004A815B819E0141155105F1F0EA01F5CF1A
:10145000D383C28340815181840F951FC817D90758
:1014600059F488819981840F951F02969183808316
:101470008A819B81938382832115310529F4F0931E
:101480005004E0934F043DC0E901FB83EA83499196
:101490005991C40FD51FEC17FD0761F4808191812C
:1014A000840F951F0296E901998388838281938135
:1014B0009B838A83E0E0F0E012968D919C911397D4
:1014C000009719F0FD01DC01F7CF8D919C911197E8
:1014D0009D012E5F3F4F820F931F20914D0430914D
:1014E0004E042817390769F4309729F410925004F4
:1014F00010924F0402C013821282B0934E04A09344
:101500004D04DF91CF910895A0E0B0E0EAE8FAE061
:101510000C94C508EC01009721F4CB010E946309EB
:10152000B4C0FC01E60FF71F9C0122503109E217FD
:10153000F30708F4A8C0D9010D911C911197061763
:101540001707B0F00530110508F49BC0C8010497D7
:101550008617970708F495C002501109061B170B50
:10156000019311936D937C93CF010E94FB0989C075
:101570005B01A01AB10A4C01800E911EA0914F048C
:10158000B0915004612C712CE12CF12C109709F4CE
:1015900046C08D919C911197A815B905B1F56C01C4
:1015A00042E0C40ED11CCA14DB0478F14C018A1845
:1015B0009B08640142E0C40ED11C1296BC901297A5
:1015C0001396AC91B5E0CB16D10440F0B282A38360
:1015D00091828082D9016D937C9309C00E5F1F4F69
:1015E000800F911FF90191838083EB2DFA2FE11475
:1015F000F10431F0D7011396FC93EE93129741C09A
:10160000F0935004E0934F043CC06816790608F448
:101610003C017D0112960D90BC91A02DB7CF809119
:101620004D0490914E0488169906E1F466167706EB
:10163000C8F48091040190910501009741F48DB7A1
:101640009EB74091080150910901841B950BE81742
:10165000F907C8F4F0934E04E0934D04F901718347
:1016600060830FC0CB010E9463097C01009759F091
:10167000A801BE010E945A0BCE010E94FB09C701BE
:1016800004C0CE0102C080E090E0CDB7DEB7EEE04E
:101690000C94E10881E090E0F8940C946A0B85FDCD
:1016A0000C947608806291110C94760881568A51C8
:1016B000D8F70895FB01DC0102C001900D92415062
:1016C0005040D8F70895FB01DC0101900D920020F5
:1016D000E1F7089510E0CDE5D0E004C0FE010E94DE
:0E16E0005D092196CE35D107C9F7F894FFCFEA
:1016EE0001000000000051048000810C42004E15E4
:1016FE004926A408913B020080020028C02E401506
:10170E000008001100048008000000000000000026
:10171E00000000000000000000000000400440082F
:10172E008808081108220305371A0000000000007F
:10173E00000000000000000000000000000000009B
:10174E00000000000000000000000000000000008B
:10175E000000000000000000000000000000390042
:10176E0000220F00000A0800002000000000000008
:10177E00000000000000000000000000000000005B
:10178E00000000000000000000000000000000004B
:10179E0000000000000000000000000000008012A9
:1017AE0006000029140986054F0539004F0439102B
:1017BE0031113D01361149045108B0123800B620DE
:1017CE0036223F00B1103F02B1122D1141043E00EE
:1017DE000622360A802A80248908081A381218111F
:1017EE000E09820380150F21301204015008C00625
:1017FE004004141510121C1130300721101108036B
:10180E0040151C000402140A802A80280818BF08FC
:10181E00860099100F0126110D21391281083F11F2
:10182E000F21000000003E01A700D5008B0106012C
:10183E00E400F8000D0A003134205365676D656EC3
:10184E007420446973706C617920776974682050D4
:10185E00726F6772616D6D61626C65204D65737339
:10186E006167650053746F726564206D6573736193
:10187E00676520666F756E6421204C656E677468AF
:10188E0020697320004572726F72212043616E6E63
:10189E006F742066696E642073746F726564206D58
:1018AE006573736167652100504C45415345205364
:1018BE0045542054484953204D45535341474520E4
:1018CE0056494120412053455249414C204C494EE6
:1018DE004B2020200053656E642061206E657720BA
:1018EE006D65737361676520696620796F75206C0D
:1018FE00696B6520286C696D6974206F66203132C2
:10190E003820636861727329002420004D6573735B
:10191E0061676520726563696576656421204C6533
:10192E006E6774683A20004D6573736167653A207F
:10193E00004D6573736167652041646472657373EE
:10194E002077696C6C20626520004C656E67746848
:10195E0020436F6E6669726D6174696F6E202852D6
:10196E006561642066726F6D20454550524F4D295A
:04197E003A2000000B
:00000001FF
